{
  "_format": "hh-sol-artifact-1",
  "contractName": "CitizenNFT",
  "sourceName": "contracts/CitizenNFT.sol",
  "abi": [
    {
      "inputs": [],
      "stateMutability": "nonpayable",
      "type": "constructor"
    },
    {
      "anonymous": false,
      "inputs": [
        {
          "indexed": true,
          "internalType": "address",
          "name": "account",
          "type": "address"
        },
        {
          "indexed": true,
          "internalType": "address",
          "name": "operator",
          "type": "address"
        },
        {
          "indexed": false,
          "internalType": "bool",
          "name": "approved",
          "type": "bool"
        }
      ],
      "name": "ApprovalForAll",
      "type": "event"
    },
    {
      "anonymous": false,
      "inputs": [
        {
          "indexed": true,
          "internalType": "address",
          "name": "previousOwner",
          "type": "address"
        },
        {
          "indexed": true,
          "internalType": "address",
          "name": "newOwner",
          "type": "address"
        }
      ],
      "name": "OwnershipTransferred",
      "type": "event"
    },
    {
      "anonymous": false,
      "inputs": [
        {
          "indexed": true,
          "internalType": "address",
          "name": "operator",
          "type": "address"
        },
        {
          "indexed": true,
          "internalType": "address",
          "name": "from",
          "type": "address"
        },
        {
          "indexed": true,
          "internalType": "address",
          "name": "to",
          "type": "address"
        },
        {
          "indexed": false,
          "internalType": "uint256[]",
          "name": "ids",
          "type": "uint256[]"
        },
        {
          "indexed": false,
          "internalType": "uint256[]",
          "name": "values",
          "type": "uint256[]"
        }
      ],
      "name": "TransferBatch",
      "type": "event"
    },
    {
      "anonymous": false,
      "inputs": [
        {
          "indexed": true,
          "internalType": "address",
          "name": "operator",
          "type": "address"
        },
        {
          "indexed": true,
          "internalType": "address",
          "name": "from",
          "type": "address"
        },
        {
          "indexed": true,
          "internalType": "address",
          "name": "to",
          "type": "address"
        },
        {
          "indexed": false,
          "internalType": "uint256",
          "name": "id",
          "type": "uint256"
        },
        {
          "indexed": false,
          "internalType": "uint256",
          "name": "value",
          "type": "uint256"
        }
      ],
      "name": "TransferSingle",
      "type": "event"
    },
    {
      "anonymous": false,
      "inputs": [
        {
          "indexed": false,
          "internalType": "string",
          "name": "value",
          "type": "string"
        },
        {
          "indexed": true,
          "internalType": "uint256",
          "name": "id",
          "type": "uint256"
        }
      ],
      "name": "URI",
      "type": "event"
    },
    {
      "inputs": [
        {
          "internalType": "address",
          "name": "account",
          "type": "address"
        },
        {
          "internalType": "uint256",
          "name": "id",
          "type": "uint256"
        }
      ],
      "name": "balanceOf",
      "outputs": [
        {
          "internalType": "uint256",
          "name": "",
          "type": "uint256"
        }
      ],
      "stateMutability": "view",
      "type": "function"
    },
    {
      "inputs": [
        {
          "internalType": "address[]",
          "name": "accounts",
          "type": "address[]"
        },
        {
          "internalType": "uint256[]",
          "name": "ids",
          "type": "uint256[]"
        }
      ],
      "name": "balanceOfBatch",
      "outputs": [
        {
          "internalType": "uint256[]",
          "name": "",
          "type": "uint256[]"
        }
      ],
      "stateMutability": "view",
      "type": "function"
    },
    {
      "inputs": [
        {
          "internalType": "address",
          "name": "account",
          "type": "address"
        },
        {
          "internalType": "address",
          "name": "operator",
          "type": "address"
        }
      ],
      "name": "isApprovedForAll",
      "outputs": [
        {
          "internalType": "bool",
          "name": "",
          "type": "bool"
        }
      ],
      "stateMutability": "view",
      "type": "function"
    },
    {
      "inputs": [
        {
          "internalType": "address",
          "name": "_to",
          "type": "address"
        },
        {
          "internalType": "uint256",
          "name": "_citizenType",
          "type": "uint256"
        },
        {
          "internalType": "uint256",
          "name": "_numberOfCitizens",
          "type": "uint256"
        }
      ],
      "name": "issueNewCitizenships",
      "outputs": [],
      "stateMutability": "nonpayable",
      "type": "function"
    },
    {
      "inputs": [],
      "name": "owner",
      "outputs": [
        {
          "internalType": "address",
          "name": "",
          "type": "address"
        }
      ],
      "stateMutability": "view",
      "type": "function"
    },
    {
      "inputs": [],
      "name": "renounceOwnership",
      "outputs": [],
      "stateMutability": "nonpayable",
      "type": "function"
    },
    {
      "inputs": [
        {
          "internalType": "address",
          "name": "from",
          "type": "address"
        },
        {
          "internalType": "address",
          "name": "to",
          "type": "address"
        },
        {
          "internalType": "uint256[]",
          "name": "ids",
          "type": "uint256[]"
        },
        {
          "internalType": "uint256[]",
          "name": "amounts",
          "type": "uint256[]"
        },
        {
          "internalType": "bytes",
          "name": "data",
          "type": "bytes"
        }
      ],
      "name": "safeBatchTransferFrom",
      "outputs": [],
      "stateMutability": "nonpayable",
      "type": "function"
    },
    {
      "inputs": [
        {
          "internalType": "address",
          "name": "from",
          "type": "address"
        },
        {
          "internalType": "address",
          "name": "to",
          "type": "address"
        },
        {
          "internalType": "uint256",
          "name": "id",
          "type": "uint256"
        },
        {
          "internalType": "uint256",
          "name": "amount",
          "type": "uint256"
        },
        {
          "internalType": "bytes",
          "name": "data",
          "type": "bytes"
        }
      ],
      "name": "safeTransferFrom",
      "outputs": [],
      "stateMutability": "nonpayable",
      "type": "function"
    },
    {
      "inputs": [
        {
          "internalType": "address",
          "name": "operator",
          "type": "address"
        },
        {
          "internalType": "bool",
          "name": "approved",
          "type": "bool"
        }
      ],
      "name": "setApprovalForAll",
      "outputs": [],
      "stateMutability": "nonpayable",
      "type": "function"
    },
    {
      "inputs": [
        {
          "internalType": "bytes4",
          "name": "interfaceId",
          "type": "bytes4"
        }
      ],
      "name": "supportsInterface",
      "outputs": [
        {
          "internalType": "bool",
          "name": "",
          "type": "bool"
        }
      ],
      "stateMutability": "view",
      "type": "function"
    },
    {
      "inputs": [
        {
          "internalType": "address",
          "name": "newOwner",
          "type": "address"
        }
      ],
      "name": "transferOwnership",
      "outputs": [],
      "stateMutability": "nonpayable",
      "type": "function"
    },
    {
      "inputs": [
        {
          "internalType": "uint256",
          "name": "",
          "type": "uint256"
        }
      ],
      "name": "uri",
      "outputs": [
        {
          "internalType": "string",
          "name": "",
          "type": "string"
        }
      ],
      "stateMutability": "view",
      "type": "function"
    }
  ],
  "bytecode": "0x60806040523480156200001157600080fd5b506040518060200160405280600081525062000033816200005a60201b60201c565b5062000054620000486200007660201b60201c565b6200007e60201b60201c565b62000259565b80600290805190602001906200007292919062000144565b5050565b600033905090565b6000600360009054906101000a900473ffffffffffffffffffffffffffffffffffffffff16905081600360006101000a81548173ffffffffffffffffffffffffffffffffffffffff021916908373ffffffffffffffffffffffffffffffffffffffff1602179055508173ffffffffffffffffffffffffffffffffffffffff168173ffffffffffffffffffffffffffffffffffffffff167f8be0079c531659141344cd1fd0a4f28419497f9722a3daafe3b4186f6b6457e060405160405180910390a35050565b8280546200015290620001f4565b90600052602060002090601f016020900481019282620001765760008555620001c2565b82601f106200019157805160ff1916838001178555620001c2565b82800160010185558215620001c2579182015b82811115620001c1578251825591602001919060010190620001a4565b5b509050620001d19190620001d5565b5090565b5b80821115620001f0576000816000905550600101620001d6565b5090565b600060028204905060018216806200020d57607f821691505b602082108114156200022457620002236200022a565b5b50919050565b7f4e487b7100000000000000000000000000000000000000000000000000000000600052602260045260246000fd5b612d9180620002696000396000f3fe608060405234801561001057600080fd5b50600436106100b35760003560e01c80638da5cb5b116100715780638da5cb5b1461019e578063a22cb465146101bc578063e985e9c5146101d8578063eea677fe14610208578063f242432a14610224578063f2fde38b14610240576100b3565b8062fdd58e146100b857806301ffc9a7146100e85780630e89341c146101185780632eb2c2d6146101485780634e1273f414610164578063715018a614610194575b600080fd5b6100d260048036038101906100cd9190611d34565b61025c565b6040516100df91906124a4565b60405180910390f35b61010260048036038101906100fd9190611e2b565b610325565b60405161010f91906122c7565b60405180910390f35b610132600480360381019061012d9190611e7d565b610407565b60405161013f91906122e2565b60405180910390f35b610162600480360381019061015d9190611baa565b61049b565b005b61017e60048036038101906101799190611dbf565b61053c565b60405161018b919061226e565b60405180910390f35b61019c6106ed565b005b6101a6610775565b6040516101b39190612191565b60405180910390f35b6101d660048036038101906101d19190611cf8565b61079f565b005b6101f260048036038101906101ed9190611b6e565b610920565b6040516101ff91906122c7565b60405180910390f35b610222600480360381019061021d9190611d70565b6109b4565b005b61023e60048036038101906102399190611c69565b610a50565b005b61025a60048036038101906102559190611b45565b610af1565b005b60008073ffffffffffffffffffffffffffffffffffffffff168373ffffffffffffffffffffffffffffffffffffffff1614156102cd576040517f08c379a00000000000000000000000000000000000000000000000000000000081526004016102c490612344565b60405180910390fd5b60008083815260200190815260200160002060008473ffffffffffffffffffffffffffffffffffffffff1673ffffffffffffffffffffffffffffffffffffffff16815260200190815260200160002054905092915050565b60007fd9b67a26000000000000000000000000000000000000000000000000000000007bffffffffffffffffffffffffffffffffffffffffffffffffffffffff1916827bffffffffffffffffffffffffffffffffffffffffffffffffffffffff191614806103f057507f0e89341c000000000000000000000000000000000000000000000000000000007bffffffffffffffffffffffffffffffffffffffffffffffffffffffff1916827bffffffffffffffffffffffffffffffffffffffffffffffffffffffff1916145b8061040057506103ff82610be9565b5b9050919050565b60606002805461041690612713565b80601f016020809104026020016040519081016040528092919081815260200182805461044290612713565b801561048f5780601f106104645761010080835404028352916020019161048f565b820191906000526020600020905b81548152906001019060200180831161047257829003601f168201915b50505050509050919050565b6104a3610c53565b73ffffffffffffffffffffffffffffffffffffffff168573ffffffffffffffffffffffffffffffffffffffff1614806104e957506104e8856104e3610c53565b610920565b5b610528576040517f08c379a000000000000000000000000000000000000000000000000000000000815260040161051f906123c4565b60405180910390fd5b6105358585858585610c5b565b5050505050565b60608151835114610582576040517f08c379a000000000000000000000000000000000000000000000000000000000815260040161057990612444565b60405180910390fd5b6000835167ffffffffffffffff8111156105c5577f4e487b7100000000000000000000000000000000000000000000000000000000600052604160045260246000fd5b6040519080825280602002602001820160405280156105f35781602001602082028036833780820191505090505b50905060005b84518110156106e25761068c85828151811061063e577f4e487b7100000000000000000000000000000000000000000000000000000000600052603260045260246000fd5b602002602001015185838151811061067f577f4e487b7100000000000000000000000000000000000000000000000000000000600052603260045260246000fd5b602002602001015161025c565b8282815181106106c5577f4e487b7100000000000000000000000000000000000000000000000000000000600052603260045260246000fd5b602002602001018181525050806106db90612776565b90506105f9565b508091505092915050565b6106f5610c53565b73ffffffffffffffffffffffffffffffffffffffff16610713610775565b73ffffffffffffffffffffffffffffffffffffffff1614610769576040517f08c379a000000000000000000000000000000000000000000000000000000000815260040161076090612404565b60405180910390fd5b6107736000610fbb565b565b6000600360009054906101000a900473ffffffffffffffffffffffffffffffffffffffff16905090565b8173ffffffffffffffffffffffffffffffffffffffff166107be610c53565b73ffffffffffffffffffffffffffffffffffffffff161415610815576040517f08c379a000000000000000000000000000000000000000000000000000000000815260040161080c90612424565b60405180910390fd5b8060016000610822610c53565b73ffffffffffffffffffffffffffffffffffffffff1673ffffffffffffffffffffffffffffffffffffffff16815260200190815260200160002060008473ffffffffffffffffffffffffffffffffffffffff1673ffffffffffffffffffffffffffffffffffffffff16815260200190815260200160002060006101000a81548160ff0219169083151502179055508173ffffffffffffffffffffffffffffffffffffffff166108cf610c53565b73ffffffffffffffffffffffffffffffffffffffff167f17307eab39ab6107e8899845ad3d59bd9653f200f220920489ca2b5937696c318360405161091491906122c7565b60405180910390a35050565b6000600160008473ffffffffffffffffffffffffffffffffffffffff1673ffffffffffffffffffffffffffffffffffffffff16815260200190815260200160002060008373ffffffffffffffffffffffffffffffffffffffff1673ffffffffffffffffffffffffffffffffffffffff16815260200190815260200160002060009054906101000a900460ff16905092915050565b6109bc610c53565b73ffffffffffffffffffffffffffffffffffffffff166109da610775565b73ffffffffffffffffffffffffffffffffffffffff1614610a30576040517f08c379a0000000000000000000000000000000000000000000000000000000008152600401610a2790612404565b60405180910390fd5b610a4b83838360405180602001604052806000815250611081565b505050565b610a58610c53565b73ffffffffffffffffffffffffffffffffffffffff168573ffffffffffffffffffffffffffffffffffffffff161480610a9e5750610a9d85610a98610c53565b610920565b5b610add576040517f08c379a0000000000000000000000000000000000000000000000000000000008152600401610ad490612384565b60405180910390fd5b610aea8585858585611217565b5050505050565b610af9610c53565b73ffffffffffffffffffffffffffffffffffffffff16610b17610775565b73ffffffffffffffffffffffffffffffffffffffff1614610b6d576040517f08c379a0000000000000000000000000000000000000000000000000000000008152600401610b6490612404565b60405180910390fd5b600073ffffffffffffffffffffffffffffffffffffffff168173ffffffffffffffffffffffffffffffffffffffff161415610bdd576040517f08c379a0000000000000000000000000000000000000000000000000000000008152600401610bd490612364565b60405180910390fd5b610be681610fbb565b50565b60007f01ffc9a7000000000000000000000000000000000000000000000000000000007bffffffffffffffffffffffffffffffffffffffffffffffffffffffff1916827bffffffffffffffffffffffffffffffffffffffffffffffffffffffff1916149050919050565b600033905090565b8151835114610c9f576040517f08c379a0000000000000000000000000000000000000000000000000000000008152600401610c9690612464565b60405180910390fd5b600073ffffffffffffffffffffffffffffffffffffffff168473ffffffffffffffffffffffffffffffffffffffff161415610d0f576040517f08c379a0000000000000000000000000000000000000000000000000000000008152600401610d06906123a4565b60405180910390fd5b6000610d19610c53565b9050610d29818787878787611499565b60005b8451811015610f26576000858281518110610d70577f4e487b7100000000000000000000000000000000000000000000000000000000600052603260045260246000fd5b602002602001015190506000858381518110610db5577f4e487b7100000000000000000000000000000000000000000000000000000000600052603260045260246000fd5b60200260200101519050600080600084815260200190815260200160002060008b73ffffffffffffffffffffffffffffffffffffffff1673ffffffffffffffffffffffffffffffffffffffff16815260200190815260200160002054905081811015610e56576040517f08c379a0000000000000000000000000000000000000000000000000000000008152600401610e4d906123e4565b60405180910390fd5b81810360008085815260200190815260200160002060008c73ffffffffffffffffffffffffffffffffffffffff1673ffffffffffffffffffffffffffffffffffffffff168152602001908152602001600020819055508160008085815260200190815260200160002060008b73ffffffffffffffffffffffffffffffffffffffff1673ffffffffffffffffffffffffffffffffffffffff1681526020019081526020016000206000828254610f0b9190612607565b9250508190555050505080610f1f90612776565b9050610d2c565b508473ffffffffffffffffffffffffffffffffffffffff168673ffffffffffffffffffffffffffffffffffffffff168273ffffffffffffffffffffffffffffffffffffffff167f4a39dc06d4c0dbc64b70af90fd698a233a518aa5d07e595d983b8c0526c8f7fb8787604051610f9d929190612290565b60405180910390a4610fb38187878787876114a1565b505050505050565b6000600360009054906101000a900473ffffffffffffffffffffffffffffffffffffffff16905081600360006101000a81548173ffffffffffffffffffffffffffffffffffffffff021916908373ffffffffffffffffffffffffffffffffffffffff1602179055508173ffffffffffffffffffffffffffffffffffffffff168173ffffffffffffffffffffffffffffffffffffffff167f8be0079c531659141344cd1fd0a4f28419497f9722a3daafe3b4186f6b6457e060405160405180910390a35050565b600073ffffffffffffffffffffffffffffffffffffffff168473ffffffffffffffffffffffffffffffffffffffff1614156110f1576040517f08c379a00000000000000000000000000000000000000000000000000000000081526004016110e890612484565b60405180910390fd5b60006110fb610c53565b905061111c8160008761110d88611688565b61111688611688565b87611499565b8260008086815260200190815260200160002060008773ffffffffffffffffffffffffffffffffffffffff1673ffffffffffffffffffffffffffffffffffffffff168152602001908152602001600020600082825461117b9190612607565b925050819055508473ffffffffffffffffffffffffffffffffffffffff16600073ffffffffffffffffffffffffffffffffffffffff168273ffffffffffffffffffffffffffffffffffffffff167fc3d58168c5ae7397731d063d5bbf3d657854427343f4c083240f7aacaa2d0f6287876040516111f99291906124bf565b60405180910390a46112108160008787878761174e565b5050505050565b600073ffffffffffffffffffffffffffffffffffffffff168473ffffffffffffffffffffffffffffffffffffffff161415611287576040517f08c379a000000000000000000000000000000000000000000000000000000000815260040161127e906123a4565b60405180910390fd5b6000611291610c53565b90506112b18187876112a288611688565b6112ab88611688565b87611499565b600080600086815260200190815260200160002060008873ffffffffffffffffffffffffffffffffffffffff1673ffffffffffffffffffffffffffffffffffffffff16815260200190815260200160002054905083811015611348576040517f08c379a000000000000000000000000000000000000000000000000000000000815260040161133f906123e4565b60405180910390fd5b83810360008087815260200190815260200160002060008973ffffffffffffffffffffffffffffffffffffffff1673ffffffffffffffffffffffffffffffffffffffff168152602001908152602001600020819055508360008087815260200190815260200160002060008873ffffffffffffffffffffffffffffffffffffffff1673ffffffffffffffffffffffffffffffffffffffff16815260200190815260200160002060008282546113fd9190612607565b925050819055508573ffffffffffffffffffffffffffffffffffffffff168773ffffffffffffffffffffffffffffffffffffffff168373ffffffffffffffffffffffffffffffffffffffff167fc3d58168c5ae7397731d063d5bbf3d657854427343f4c083240f7aacaa2d0f62888860405161147a9291906124bf565b60405180910390a461149082888888888861174e565b50505050505050565b505050505050565b6114c08473ffffffffffffffffffffffffffffffffffffffff16611935565b15611680578373ffffffffffffffffffffffffffffffffffffffff1663bc197c8187878686866040518663ffffffff1660e01b81526004016115069594939291906121ac565b602060405180830381600087803b15801561152057600080fd5b505af192505050801561155157506040513d601f19601f8201168201806040525081019061154e9190611e54565b60015b6115f75761155d61284c565b806308c379a014156115ba5750611572612c69565b8061157d57506115bc565b806040517f08c379a00000000000000000000000000000000000000000000000000000000081526004016115b191906122e2565b60405180910390fd5b505b6040517f08c379a00000000000000000000000000000000000000000000000000000000081526004016115ee90612304565b60405180910390fd5b63bc197c8160e01b7bffffffffffffffffffffffffffffffffffffffffffffffffffffffff1916817bffffffffffffffffffffffffffffffffffffffffffffffffffffffff19161461167e576040517f08c379a000000000000000000000000000000000000000000000000000000000815260040161167590612324565b60405180910390fd5b505b505050505050565b60606000600167ffffffffffffffff8111156116cd577f4e487b7100000000000000000000000000000000000000000000000000000000600052604160045260246000fd5b6040519080825280602002602001820160405280156116fb5781602001602082028036833780820191505090505b5090508281600081518110611739577f4e487b7100000000000000000000000000000000000000000000000000000000600052603260045260246000fd5b60200260200101818152505080915050919050565b61176d8473ffffffffffffffffffffffffffffffffffffffff16611935565b1561192d578373ffffffffffffffffffffffffffffffffffffffff1663f23a6e6187878686866040518663ffffffff1660e01b81526004016117b3959493929190612214565b602060405180830381600087803b1580156117cd57600080fd5b505af19250505080156117fe57506040513d601f19601f820116820180604052508101906117fb9190611e54565b60015b6118a45761180a61284c565b806308c379a01415611867575061181f612c69565b8061182a5750611869565b806040517f08c379a000000000000000000000000000000000000000000000000000000000815260040161185e91906122e2565b60405180910390fd5b505b6040517f08c379a000000000000000000000000000000000000000000000000000000000815260040161189b90612304565b60405180910390fd5b63f23a6e6160e01b7bffffffffffffffffffffffffffffffffffffffffffffffffffffffff1916817bffffffffffffffffffffffffffffffffffffffffffffffffffffffff19161461192b576040517f08c379a000000000000000000000000000000000000000000000000000000000815260040161192290612324565b60405180910390fd5b505b505050505050565b600080823b905060008111915050919050565b600061195b6119568461250d565b6124e8565b9050808382526020820190508285602086028201111561197a57600080fd5b60005b858110156119aa57816119908882611a5e565b84526020840193506020830192505060018101905061197d565b5050509392505050565b60006119c76119c284612539565b6124e8565b905080838252602082019050828560208602820111156119e657600080fd5b60005b85811015611a1657816119fc8882611b30565b8452602084019350602083019250506001810190506119e9565b5050509392505050565b6000611a33611a2e84612565565b6124e8565b905082815260208101848484011115611a4b57600080fd5b611a568482856126d1565b509392505050565b600081359050611a6d81612cff565b92915050565b600082601f830112611a8457600080fd5b8135611a94848260208601611948565b91505092915050565b600082601f830112611aae57600080fd5b8135611abe8482602086016119b4565b91505092915050565b600081359050611ad681612d16565b92915050565b600081359050611aeb81612d2d565b92915050565b600081519050611b0081612d2d565b92915050565b600082601f830112611b1757600080fd5b8135611b27848260208601611a20565b91505092915050565b600081359050611b3f81612d44565b92915050565b600060208284031215611b5757600080fd5b6000611b6584828501611a5e565b91505092915050565b60008060408385031215611b8157600080fd5b6000611b8f85828601611a5e565b9250506020611ba085828601611a5e565b9150509250929050565b600080600080600060a08688031215611bc257600080fd5b6000611bd088828901611a5e565b9550506020611be188828901611a5e565b945050604086013567ffffffffffffffff811115611bfe57600080fd5b611c0a88828901611a9d565b935050606086013567ffffffffffffffff811115611c2757600080fd5b611c3388828901611a9d565b925050608086013567ffffffffffffffff811115611c5057600080fd5b611c5c88828901611b06565b9150509295509295909350565b600080600080600060a08688031215611c8157600080fd5b6000611c8f88828901611a5e565b9550506020611ca088828901611a5e565b9450506040611cb188828901611b30565b9350506060611cc288828901611b30565b925050608086013567ffffffffffffffff811115611cdf57600080fd5b611ceb88828901611b06565b9150509295509295909350565b60008060408385031215611d0b57600080fd5b6000611d1985828601611a5e565b9250506020611d2a85828601611ac7565b9150509250929050565b60008060408385031215611d4757600080fd5b6000611d5585828601611a5e565b9250506020611d6685828601611b30565b9150509250929050565b600080600060608486031215611d8557600080fd5b6000611d9386828701611a5e565b9350506020611da486828701611b30565b9250506040611db586828701611b30565b9150509250925092565b60008060408385031215611dd257600080fd5b600083013567ffffffffffffffff811115611dec57600080fd5b611df885828601611a73565b925050602083013567ffffffffffffffff811115611e1557600080fd5b611e2185828601611a9d565b9150509250929050565b600060208284031215611e3d57600080fd5b6000611e4b84828501611adc565b91505092915050565b600060208284031215611e6657600080fd5b6000611e7484828501611af1565b91505092915050565b600060208284031215611e8f57600080fd5b6000611e9d84828501611b30565b91505092915050565b6000611eb28383612173565b60208301905092915050565b611ec78161265d565b82525050565b6000611ed8826125a6565b611ee281856125d4565b9350611eed83612596565b8060005b83811015611f1e578151611f058882611ea6565b9750611f10836125c7565b925050600181019050611ef1565b5085935050505092915050565b611f348161266f565b82525050565b6000611f45826125b1565b611f4f81856125e5565b9350611f5f8185602086016126e0565b611f688161286e565b840191505092915050565b6000611f7e826125bc565b611f8881856125f6565b9350611f988185602086016126e0565b611fa18161286e565b840191505092915050565b6000611fb96034836125f6565b9150611fc48261288c565b604082019050919050565b6000611fdc6028836125f6565b9150611fe7826128db565b604082019050919050565b6000611fff602b836125f6565b915061200a8261292a565b604082019050919050565b60006120226026836125f6565b915061202d82612979565b604082019050919050565b60006120456029836125f6565b9150612050826129c8565b604082019050919050565b60006120686025836125f6565b915061207382612a17565b604082019050919050565b600061208b6032836125f6565b915061209682612a66565b604082019050919050565b60006120ae602a836125f6565b91506120b982612ab5565b604082019050919050565b60006120d16020836125f6565b91506120dc82612b04565b602082019050919050565b60006120f46029836125f6565b91506120ff82612b2d565b604082019050919050565b60006121176029836125f6565b915061212282612b7c565b604082019050919050565b600061213a6028836125f6565b915061214582612bcb565b604082019050919050565b600061215d6021836125f6565b915061216882612c1a565b604082019050919050565b61217c816126c7565b82525050565b61218b816126c7565b82525050565b60006020820190506121a66000830184611ebe565b92915050565b600060a0820190506121c16000830188611ebe565b6121ce6020830187611ebe565b81810360408301526121e08186611ecd565b905081810360608301526121f48185611ecd565b905081810360808301526122088184611f3a565b90509695505050505050565b600060a0820190506122296000830188611ebe565b6122366020830187611ebe565b6122436040830186612182565b6122506060830185612182565b81810360808301526122628184611f3a565b90509695505050505050565b600060208201905081810360008301526122888184611ecd565b905092915050565b600060408201905081810360008301526122aa8185611ecd565b905081810360208301526122be8184611ecd565b90509392505050565b60006020820190506122dc6000830184611f2b565b92915050565b600060208201905081810360008301526122fc8184611f73565b905092915050565b6000602082019050818103600083015261231d81611fac565b9050919050565b6000602082019050818103600083015261233d81611fcf565b9050919050565b6000602082019050818103600083015261235d81611ff2565b9050919050565b6000602082019050818103600083015261237d81612015565b9050919050565b6000602082019050818103600083015261239d81612038565b9050919050565b600060208201905081810360008301526123bd8161205b565b9050919050565b600060208201905081810360008301526123dd8161207e565b9050919050565b600060208201905081810360008301526123fd816120a1565b9050919050565b6000602082019050818103600083015261241d816120c4565b9050919050565b6000602082019050818103600083015261243d816120e7565b9050919050565b6000602082019050818103600083015261245d8161210a565b9050919050565b6000602082019050818103600083015261247d8161212d565b9050919050565b6000602082019050818103600083015261249d81612150565b9050919050565b60006020820190506124b96000830184612182565b92915050565b60006040820190506124d46000830185612182565b6124e16020830184612182565b9392505050565b60006124f2612503565b90506124fe8282612745565b919050565b6000604051905090565b600067ffffffffffffffff8211156125285761252761281d565b5b602082029050602081019050919050565b600067ffffffffffffffff8211156125545761255361281d565b5b602082029050602081019050919050565b600067ffffffffffffffff8211156125805761257f61281d565b5b6125898261286e565b9050602081019050919050565b6000819050602082019050919050565b600081519050919050565b600081519050919050565b600081519050919050565b6000602082019050919050565b600082825260208201905092915050565b600082825260208201905092915050565b600082825260208201905092915050565b6000612612826126c7565b915061261d836126c7565b9250827fffffffffffffffffffffffffffffffffffffffffffffffffffffffffffffffff03821115612652576126516127bf565b5b828201905092915050565b6000612668826126a7565b9050919050565b60008115159050919050565b60007fffffffff0000000000000000000000000000000000000000000000000000000082169050919050565b600073ffffffffffffffffffffffffffffffffffffffff82169050919050565b6000819050919050565b82818337600083830152505050565b60005b838110156126fe5780820151818401526020810190506126e3565b8381111561270d576000848401525b50505050565b6000600282049050600182168061272b57607f821691505b6020821081141561273f5761273e6127ee565b5b50919050565b61274e8261286e565b810181811067ffffffffffffffff8211171561276d5761276c61281d565b5b80604052505050565b6000612781826126c7565b91507fffffffffffffffffffffffffffffffffffffffffffffffffffffffffffffffff8214156127b4576127b36127bf565b5b600182019050919050565b7f4e487b7100000000000000000000000000000000000000000000000000000000600052601160045260246000fd5b7f4e487b7100000000000000000000000000000000000000000000000000000000600052602260045260246000fd5b7f4e487b7100000000000000000000000000000000000000000000000000000000600052604160045260246000fd5b600060033d111561286b5760046000803e61286860005161287f565b90505b90565b6000601f19601f8301169050919050565b60008160e01c9050919050565b7f455243313135353a207472616e7366657220746f206e6f6e204552433131353560008201527f526563656976657220696d706c656d656e746572000000000000000000000000602082015250565b7f455243313135353a204552433131353552656365697665722072656a6563746560008201527f6420746f6b656e73000000000000000000000000000000000000000000000000602082015250565b7f455243313135353a2062616c616e636520717565727920666f7220746865207a60008201527f65726f2061646472657373000000000000000000000000000000000000000000602082015250565b7f4f776e61626c653a206e6577206f776e657220697320746865207a65726f206160008201527f6464726573730000000000000000000000000000000000000000000000000000602082015250565b7f455243313135353a2063616c6c6572206973206e6f74206f776e6572206e6f7260008201527f20617070726f7665640000000000000000000000000000000000000000000000602082015250565b7f455243313135353a207472616e7366657220746f20746865207a65726f20616460008201527f6472657373000000000000000000000000000000000000000000000000000000602082015250565b7f455243313135353a207472616e736665722063616c6c6572206973206e6f742060008201527f6f776e6572206e6f7220617070726f7665640000000000000000000000000000602082015250565b7f455243313135353a20696e73756666696369656e742062616c616e636520666f60008201527f72207472616e7366657200000000000000000000000000000000000000000000602082015250565b7f4f776e61626c653a2063616c6c6572206973206e6f7420746865206f776e6572600082015250565b7f455243313135353a2073657474696e6720617070726f76616c2073746174757360008201527f20666f722073656c660000000000000000000000000000000000000000000000602082015250565b7f455243313135353a206163636f756e747320616e6420696473206c656e67746860008201527f206d69736d617463680000000000000000000000000000000000000000000000602082015250565b7f455243313135353a2069647320616e6420616d6f756e7473206c656e6774682060008201527f6d69736d61746368000000000000000000000000000000000000000000000000602082015250565b7f455243313135353a206d696e7420746f20746865207a65726f2061646472657360008201527f7300000000000000000000000000000000000000000000000000000000000000602082015250565b600060443d1015612c7957612cfc565b612c81612503565b60043d036004823e80513d602482011167ffffffffffffffff82111715612ca9575050612cfc565b808201805167ffffffffffffffff811115612cc75750505050612cfc565b80602083010160043d038501811115612ce4575050505050612cfc565b612cf382602001850186612745565b82955050505050505b90565b612d088161265d565b8114612d1357600080fd5b50565b612d1f8161266f565b8114612d2a57600080fd5b50565b612d368161267b565b8114612d4157600080fd5b50565b612d4d816126c7565b8114612d5857600080fd5b5056fea264697066735822122006957934dd45980649ee91307e4e367400344c348bde7f1ae3c00dca0ca050bd64736f6c63430008040033",
  "linkReferences": {},
  "deployedLinkReferences": {}
}